{
  "_format": "hh-sol-artifact-1",
  "contractName": "OliPay",
  "sourceName": "contracts/OliPay.sol",
  "abi": [
    {
      "inputs": [
        {
          "internalType": "address",
          "name": "_oliveTrace",
          "type": "address"
        }
      ],
      "stateMutability": "nonpayable",
      "type": "constructor"
    },
    {
      "anonymous": false,
      "inputs": [
        {
          "indexed": true,
          "internalType": "uint256",
          "name": "lotId",
          "type": "uint256"
        },
        {
          "indexed": false,
          "internalType": "address",
          "name": "producer",
          "type": "address"
        },
        {
          "indexed": false,
          "internalType": "address",
          "name": "mill",
          "type": "address"
        },
        {
          "indexed": false,
          "internalType": "address",
          "name": "transport",
          "type": "address"
        }
      ],
      "name": "LotConfigured",
      "type": "event"
    },
    {
      "anonymous": false,
      "inputs": [
        {
          "indexed": true,
          "internalType": "uint256",
          "name": "lotId",
          "type": "uint256"
        },
        {
          "indexed": false,
          "internalType": "uint256",
          "name": "amountDistributed",
          "type": "uint256"
        },
        {
          "indexed": true,
          "internalType": "address",
          "name": "distributor",
          "type": "address"
        },
        {
          "indexed": false,
          "internalType": "uint256",
          "name": "timestamp",
          "type": "uint256"
        }
      ],
      "name": "PaymentDistributed",
      "type": "event"
    },
    {
      "anonymous": false,
      "inputs": [
        {
          "indexed": true,
          "internalType": "uint256",
          "name": "lotId",
          "type": "uint256"
        },
        {
          "indexed": true,
          "internalType": "address",
          "name": "recipient",
          "type": "address"
        },
        {
          "indexed": false,
          "internalType": "uint256",
          "name": "amount",
          "type": "uint256"
        },
        {
          "indexed": false,
          "internalType": "string",
          "name": "role",
          "type": "string"
        }
      ],
      "name": "ShareSent",
      "type": "event"
    },
    {
      "stateMutability": "payable",
      "type": "fallback"
    },
    {
      "inputs": [
        {
          "internalType": "uint256",
          "name": "lotId",
          "type": "uint256"
        },
        {
          "internalType": "address",
          "name": "producer",
          "type": "address"
        },
        {
          "internalType": "uint16",
          "name": "producerBps",
          "type": "uint16"
        },
        {
          "internalType": "address",
          "name": "mill",
          "type": "address"
        },
        {
          "internalType": "uint16",
          "name": "millBps",
          "type": "uint16"
        },
        {
          "internalType": "address",
          "name": "transport",
          "type": "address"
        },
        {
          "internalType": "uint16",
          "name": "transportBps",
          "type": "uint16"
        }
      ],
      "name": "configureLot",
      "outputs": [],
      "stateMutability": "nonpayable",
      "type": "function"
    },
    {
      "inputs": [
        {
          "internalType": "uint256",
          "name": "lotId",
          "type": "uint256"
        }
      ],
      "name": "getPaymentConfig",
      "outputs": [
        {
          "components": [
            {
              "internalType": "address",
              "name": "producer",
              "type": "address"
            },
            {
              "internalType": "uint16",
              "name": "producerBps",
              "type": "uint16"
            },
            {
              "internalType": "address",
              "name": "mill",
              "type": "address"
            },
            {
              "internalType": "uint16",
              "name": "millBps",
              "type": "uint16"
            },
            {
              "internalType": "address",
              "name": "transport",
              "type": "address"
            },
            {
              "internalType": "uint16",
              "name": "transportBps",
              "type": "uint16"
            },
            {
              "internalType": "bool",
              "name": "configured",
              "type": "bool"
            }
          ],
          "internalType": "struct OliPay.PaymentConfig",
          "name": "",
          "type": "tuple"
        }
      ],
      "stateMutability": "view",
      "type": "function"
    },
    {
      "inputs": [
        {
          "internalType": "uint256",
          "name": "lotId",
          "type": "uint256"
        }
      ],
      "name": "getPaymentHistory",
      "outputs": [
        {
          "components": [
            {
              "internalType": "uint256",
              "name": "amount",
              "type": "uint256"
            },
            {
              "internalType": "uint256",
              "name": "timestamp",
              "type": "uint256"
            },
            {
              "internalType": "address",
              "name": "distributor",
              "type": "address"
            }
          ],
          "internalType": "struct OliPay.PaymentRecord[]",
          "name": "",
          "type": "tuple[]"
        }
      ],
      "stateMutability": "view",
      "type": "function"
    },
    {
      "inputs": [
        {
          "internalType": "uint256",
          "name": "lotId",
          "type": "uint256"
        }
      ],
      "name": "isLotPaid",
      "outputs": [
        {
          "internalType": "bool",
          "name": "",
          "type": "bool"
        }
      ],
      "stateMutability": "view",
      "type": "function"
    },
    {
      "inputs": [],
      "name": "oliveTrace",
      "outputs": [
        {
          "internalType": "contract OliveTrace",
          "name": "",
          "type": "address"
        }
      ],
      "stateMutability": "view",
      "type": "function"
    },
    {
      "inputs": [],
      "name": "owner",
      "outputs": [
        {
          "internalType": "address",
          "name": "",
          "type": "address"
        }
      ],
      "stateMutability": "view",
      "type": "function"
    },
    {
      "inputs": [
        {
          "internalType": "uint256",
          "name": "lotId",
          "type": "uint256"
        }
      ],
      "name": "pay",
      "outputs": [],
      "stateMutability": "payable",
      "type": "function"
    },
    {
      "stateMutability": "payable",
      "type": "receive"
    }
  ],
  "bytecode": "0x608060405234801561001057600080fd5b506040516112ce3803806112ce83398101604081905261002f916100bc565b6001600160a01b0381166100895760405162461bcd60e51b815260206004820181905260248201527f4f6c695061793a2061647265737365204f6c6976655472616365206e756c6c65604482015260640160405180910390fd5b60008054336001600160a01b031991821617909155600180549091166001600160a01b03929092169190911790556100ec565b6000602082840312156100ce57600080fd5b81516001600160a01b03811681146100e557600080fd5b9392505050565b6111d3806100fb6000396000f3fe6080604052600436106100745760003560e01c80639eaad5271161004e5780639eaad52714610190578063a21f8f0b146101d0578063c290d691146101f0578063c622969814610203576100bf565b8063062d72d6146101005780634e02503a146101225780638da5cb5b14610158576100bf565b366100bf5760405162461bcd60e51b81526020600482015260166024820152754f6c695061793a207574696c6973657220706179282960501b60448201526064015b60405180910390fd5b60405162461bcd60e51b81526020600482015260166024820152754f6c695061793a207574696c6973657220706179282960501b60448201526064016100b6565b34801561010c57600080fd5b5061012061011b366004610f8c565b61034d565b005b34801561012e57600080fd5b5061014261013d36600461100b565b610921565b60405161014f9190611024565b60405180910390f35b34801561016457600080fd5b50600054610178906001600160a01b031681565b6040516001600160a01b03909116815260200161014f565b34801561019c57600080fd5b506101c06101ab36600461100b565b60009081526004602052604090205460ff1690565b604051901515815260200161014f565b3480156101dc57600080fd5b50600154610178906001600160a01b031681565b6101206101fe36600461100b565b6109b6565b34801561020f57600080fd5b506102db61021e36600461100b565b6040805160e081018252600080825260208201819052918101829052606081018290526080810182905260a0810182905260c081019190915250600090815260026020818152604092839020835160e08101855281546001600160a01b038082168352600160a01b9182900461ffff9081169584019590955260018401548082169784019790975295819004841660608301529190930154938416608084015283041660a0820152600160b01b90910460ff16151560c082015290565b60405161014f9190600060e08201905060018060a01b03808451168352602084015161ffff80821660208601528260408701511660408601528060608701511660608601528260808701511660808601528060a08701511660a086015250505060c0830151151560c083015292915050565b6000546001600160a01b0316331461039e5760405162461bcd60e51b81526020600482015260146024820152734f6c695061793a206f776e65722072657175697360601b60448201526064016100b6565b6001600160a01b0386166103f45760405162461bcd60e51b815260206004820181905260248201527f4f6c695061793a20616472657373652070726f64756374657572206e756c6c6560448201526064016100b6565b6001600160a01b03841661044a5760405162461bcd60e51b815260206004820152601c60248201527f4f6c695061793a2061647265737365206d6f756c696e206e756c6c650000000060448201526064016100b6565b6001600160a01b0382166104a05760405162461bcd60e51b815260206004820152601f60248201527f4f6c695061793a2061647265737365207472616e73706f7274206e756c6c650060448201526064016100b6565b836001600160a01b0316866001600160a01b0316036105015760405162461bcd60e51b815260206004820152601b60248201527f4f6c695061793a2070726f64756374657572203d206d6f756c696e000000000060448201526064016100b6565b816001600160a01b0316866001600160a01b0316036105625760405162461bcd60e51b815260206004820152601e60248201527f4f6c695061793a2070726f64756374657572203d207472616e73706f7274000060448201526064016100b6565b816001600160a01b0316846001600160a01b0316036105c35760405162461bcd60e51b815260206004820152601a60248201527f4f6c695061793a206d6f756c696e203d207472616e73706f727400000000000060448201526064016100b6565b60008161ffff168461ffff168761ffff166105de919061109c565b6105e8919061109c565b9050806127101461063b5760405162461bcd60e51b815260206004820152601a60248201527f4f6c695061793a20746f74616c2062707320213d20313030303000000000000060448201526064016100b6565b60648661ffff1610156106905760405162461bcd60e51b815260206004820152601c60248201527f4f6c695061793a20706172742070726f64756374657572203c2031250000000060448201526064016100b6565b60648461ffff1610156106e55760405162461bcd60e51b815260206004820152601860248201527f4f6c695061793a2070617274206d6f756c696e203c203125000000000000000060448201526064016100b6565b60648261ffff16101561073a5760405162461bcd60e51b815260206004820152601b60248201527f4f6c695061793a2070617274207472616e73706f7274203c203125000000000060448201526064016100b6565b6040518060e00160405280886001600160a01b031681526020018761ffff168152602001866001600160a01b031681526020018561ffff168152602001846001600160a01b031681526020018361ffff16815260200160011515815250600260008a815260200190815260200160002060008201518160000160006101000a8154816001600160a01b0302191690836001600160a01b0316021790555060208201518160000160146101000a81548161ffff021916908361ffff16021790555060408201518160010160006101000a8154816001600160a01b0302191690836001600160a01b0316021790555060608201518160010160146101000a81548161ffff021916908361ffff16021790555060808201518160020160006101000a8154816001600160a01b0302191690836001600160a01b0316021790555060a08201518160020160146101000a81548161ffff021916908361ffff16021790555060c08201518160020160166101000a81548160ff021916908315150217905550905050877f740d22365a12d64d169038ff9746487889cddd3b6c9fb7c6780d3c8b474a4ddb88878660405161090f939291906001600160a01b0393841681529183166020830152909116604082015260600190565b60405180910390a25050505050505050565b606060036000838152602001908152602001600020805480602002602001604051908101604052809291908181526020016000905b828210156109ab576000848152602090819020604080516060810182526003860290920180548352600180820154848601526002909101546001600160a01b0316918301919091529083529092019101610956565b505050509050919050565b60055460ff1615610a095760405162461bcd60e51b815260206004820152601a60248201527f4f6c695061793a207265656e7472616e6379206465746563746500000000000060448201526064016100b6565b6005805460ff19166001179055600081815260046020526040902054819060ff1615610a6f5760405162461bcd60e51b81526020600482015260156024820152744f6c695061793a206c6f742064656a61207061796560581b60448201526064016100b6565b60003411610ab55760405162461bcd60e51b815260206004820152601360248201527213db1a54185e4e881b5bdb9d185b9d081b9d5b606a1b60448201526064016100b6565b600082815260026020819052604090912090810154600160b01b900460ff16610b205760405162461bcd60e51b815260206004820152601960248201527f4f6c695061793a206c6f74206e6f6e20636f6e6669677572650000000000000060448201526064016100b6565b8054349060009061271090610b4090600160a01b900461ffff16846110b5565b610b4a91906110cc565b600184015490915060009061271090610b6e90600160a01b900461ffff16856110b5565b610b7891906110cc565b9050600081610b8784866110ee565b610b9191906110ee565b855460408051808201909152600a815269383937b23ab1ba32bab960b11b6020820152919250610bce916001600160a01b03909116908590610eb5565b600185015460408051808201909152600681526536b7bab634b760d11b6020820152610c05916001600160a01b0316908490610eb5565b60028501546040805180820190915260098152681d1c985b9cdc1bdc9d60ba1b6020820152610c3f916001600160a01b0316908390610eb5565b60008781526004602081815260408084208054600160ff199091168117909155600380845282862083516060810185528b8152428187019081523382870181815284548088018655948b5297909920915192909302019081559051818301559251600290930180546001600160a01b0319166001600160a01b03948516179055549051631265b4e760e01b81529283018b90526024830188905260448301939093529190911690631265b4e790606401600060405180830381600087803b158015610d0957600080fd5b505af1158015610d1d573d6000803e3d6000fd5b505086546040516001600160a01b0390911692508991507f19c291caafcccee7e5b9f50d1b584b6b3a52b27bc1f3f3e870aab447cdf2199a90610d8590878152604060208201819052600a9082015269383937b23ab1ba32bab960b11b606082015260800190565b60405180910390a360018501546040516001600160a01b039091169088907f19c291caafcccee7e5b9f50d1b584b6b3a52b27bc1f3f3e870aab447cdf2199a90610df0908681526040602082018190526006908201526536b7bab634b760d11b606082015260800190565b60405180910390a360028501546040516001600160a01b039091169088907f19c291caafcccee7e5b9f50d1b584b6b3a52b27bc1f3f3e870aab447cdf2199a90610e5e90858152604060208201819052600990820152681d1c985b9cdc1bdc9d60ba1b606082015260800190565b60405180910390a360408051858152426020820152339189917fc7fbb3da7b4e50c2924ef6419aafc7bd2c1b373d01f9999890e2d7daa5fbf2c5910160405180910390a350506005805460ff191690555050505050565b81600003610ec257505050565b6000836001600160a01b03168360405160006040518083038185875af1925050503d8060008114610f0f576040519150601f19603f3d011682016040523d82523d6000602084013e610f14565b606091505b505090508082604051602001610f2a9190611125565b60405160208183030381529060405290610f575760405162461bcd60e51b81526004016100b6919061116a565b5050505050565b80356001600160a01b0381168114610f7557600080fd5b919050565b803561ffff81168114610f7557600080fd5b600080600080600080600060e0888a031215610fa757600080fd5b87359650610fb760208901610f5e565b9550610fc560408901610f7a565b9450610fd360608901610f5e565b9350610fe160808901610f7a565b9250610fef60a08901610f5e565b9150610ffd60c08901610f7a565b905092959891949750929550565b60006020828403121561101d57600080fd5b5035919050565b602080825282518282018190526000919060409081850190868401855b828110156110795781518051855286810151878601528501516001600160a01b03168585015260609093019290850190600101611041565b5091979650505050505050565b634e487b7160e01b600052601160045260246000fd5b808201808211156110af576110af611086565b92915050565b80820281158282048414176110af576110af611086565b6000826110e957634e487b7160e01b600052601260045260246000fd5b500490565b818103818111156110af576110af611086565b60005b8381101561111c578181015183820152602001611104565b50506000910152565b7f4f6c695061793a207472616e7366657274206563686f756520706f757220000081526000825161115d81601e850160208701611101565b91909101601e0192915050565b6020815260008251806020840152611189816040850160208701611101565b601f01601f1916919091016040019291505056fea2646970667358221220fa6a280482e336546a1b8399fa670c74e8cfa3dc4f0b0c766415d5647c7e7f2664736f6c63430008140033",
  "linkReferences": {},
  "deployedLinkReferences": {}
}