{
  "_format": "hh-sol-artifact-1",
  "contractName": "OliveTrace",
  "sourceName": "contracts/OliveTrace.sol",
  "abi": [
    {
      "inputs": [],
      "stateMutability": "nonpayable",
      "type": "constructor"
    },
    {
      "anonymous": false,
      "inputs": [
        {
          "indexed": true,
          "internalType": "uint256",
          "name": "lotId",
          "type": "uint256"
        },
        {
          "indexed": true,
          "internalType": "address",
          "name": "producer",
          "type": "address"
        },
        {
          "indexed": false,
          "internalType": "string",
          "name": "variety",
          "type": "string"
        },
        {
          "indexed": false,
          "internalType": "uint256",
          "name": "quantity",
          "type": "uint256"
        }
      ],
      "name": "LotCreated",
      "type": "event"
    },
    {
      "anonymous": false,
      "inputs": [
        {
          "indexed": true,
          "internalType": "uint256",
          "name": "lotId",
          "type": "uint256"
        }
      ],
      "name": "LotMarkedSold",
      "type": "event"
    },
    {
      "anonymous": false,
      "inputs": [
        {
          "indexed": true,
          "internalType": "address",
          "name": "oliPay",
          "type": "address"
        }
      ],
      "name": "OliPayAddressSet",
      "type": "event"
    },
    {
      "anonymous": false,
      "inputs": [
        {
          "indexed": true,
          "internalType": "address",
          "name": "account",
          "type": "address"
        },
        {
          "indexed": false,
          "internalType": "string",
          "name": "role",
          "type": "string"
        }
      ],
      "name": "RoleAssigned",
      "type": "event"
    },
    {
      "anonymous": false,
      "inputs": [
        {
          "indexed": true,
          "internalType": "uint256",
          "name": "lotId",
          "type": "uint256"
        },
        {
          "indexed": true,
          "internalType": "enum OliveTrace.StepType",
          "name": "stepType",
          "type": "uint8"
        },
        {
          "indexed": true,
          "internalType": "address",
          "name": "actor",
          "type": "address"
        },
        {
          "indexed": false,
          "internalType": "uint256",
          "name": "timestamp",
          "type": "uint256"
        }
      ],
      "name": "StepAdded",
      "type": "event"
    },
    {
      "inputs": [
        {
          "internalType": "uint256",
          "name": "lotId",
          "type": "uint256"
        },
        {
          "internalType": "string",
          "name": "retailer",
          "type": "string"
        },
        {
          "internalType": "string",
          "name": "ipfsHash",
          "type": "string"
        }
      ],
      "name": "addDistributionStep",
      "outputs": [],
      "stateMutability": "nonpayable",
      "type": "function"
    },
    {
      "inputs": [
        {
          "internalType": "uint256",
          "name": "lotId",
          "type": "uint256"
        },
        {
          "internalType": "uint256",
          "name": "outputLiters",
          "type": "uint256"
        },
        {
          "internalType": "uint256",
          "name": "acidity",
          "type": "uint256"
        },
        {
          "internalType": "string",
          "name": "label",
          "type": "string"
        },
        {
          "internalType": "string",
          "name": "ipfsHash",
          "type": "string"
        }
      ],
      "name": "addMillStep",
      "outputs": [],
      "stateMutability": "nonpayable",
      "type": "function"
    },
    {
      "inputs": [
        {
          "internalType": "uint256",
          "name": "lotId",
          "type": "uint256"
        },
        {
          "internalType": "string",
          "name": "destination",
          "type": "string"
        },
        {
          "internalType": "uint256",
          "name": "temperature",
          "type": "uint256"
        },
        {
          "internalType": "string",
          "name": "ipfsHash",
          "type": "string"
        }
      ],
      "name": "addTransportStep",
      "outputs": [],
      "stateMutability": "nonpayable",
      "type": "function"
    },
    {
      "inputs": [
        {
          "internalType": "address",
          "name": "account",
          "type": "address"
        },
        {
          "internalType": "string",
          "name": "role",
          "type": "string"
        }
      ],
      "name": "assignRole",
      "outputs": [],
      "stateMutability": "nonpayable",
      "type": "function"
    },
    {
      "inputs": [
        {
          "internalType": "string",
          "name": "variety",
          "type": "string"
        },
        {
          "internalType": "uint256",
          "name": "quantity",
          "type": "uint256"
        },
        {
          "internalType": "string",
          "name": "location",
          "type": "string"
        },
        {
          "internalType": "string",
          "name": "ipfsHash",
          "type": "string"
        }
      ],
      "name": "createLot",
      "outputs": [
        {
          "internalType": "uint256",
          "name": "lotId",
          "type": "uint256"
        }
      ],
      "stateMutability": "nonpayable",
      "type": "function"
    },
    {
      "inputs": [
        {
          "internalType": "uint256",
          "name": "lotId",
          "type": "uint256"
        }
      ],
      "name": "getLot",
      "outputs": [
        {
          "components": [
            {
              "internalType": "uint256",
              "name": "id",
              "type": "uint256"
            },
            {
              "internalType": "address",
              "name": "producer",
              "type": "address"
            },
            {
              "internalType": "string",
              "name": "variety",
              "type": "string"
            },
            {
              "internalType": "uint256",
              "name": "harvestDate",
              "type": "uint256"
            },
            {
              "internalType": "uint256",
              "name": "quantity",
              "type": "uint256"
            },
            {
              "internalType": "enum OliveTrace.LotStatus",
              "name": "status",
              "type": "uint8"
            },
            {
              "internalType": "string",
              "name": "ipfsHash",
              "type": "string"
            }
          ],
          "internalType": "struct OliveTrace.Lot",
          "name": "",
          "type": "tuple"
        }
      ],
      "stateMutability": "view",
      "type": "function"
    },
    {
      "inputs": [
        {
          "internalType": "uint256",
          "name": "lotId",
          "type": "uint256"
        }
      ],
      "name": "getLotSteps",
      "outputs": [
        {
          "components": [
            {
              "internalType": "enum OliveTrace.StepType",
              "name": "stepType",
              "type": "uint8"
            },
            {
              "internalType": "address",
              "name": "actor",
              "type": "address"
            },
            {
              "internalType": "uint256",
              "name": "timestamp",
              "type": "uint256"
            },
            {
              "internalType": "string",
              "name": "data",
              "type": "string"
            },
            {
              "internalType": "string",
              "name": "ipfsHash",
              "type": "string"
            }
          ],
          "internalType": "struct OliveTrace.Step[]",
          "name": "",
          "type": "tuple[]"
        }
      ],
      "stateMutability": "view",
      "type": "function"
    },
    {
      "inputs": [
        {
          "internalType": "address",
          "name": "actor",
          "type": "address"
        }
      ],
      "name": "getLotsByActor",
      "outputs": [
        {
          "internalType": "uint256[]",
          "name": "",
          "type": "uint256[]"
        }
      ],
      "stateMutability": "view",
      "type": "function"
    },
    {
      "inputs": [
        {
          "internalType": "address",
          "name": "account",
          "type": "address"
        }
      ],
      "name": "getRole",
      "outputs": [
        {
          "internalType": "string",
          "name": "",
          "type": "string"
        }
      ],
      "stateMutability": "view",
      "type": "function"
    },
    {
      "inputs": [
        {
          "internalType": "uint256",
          "name": "lotId",
          "type": "uint256"
        },
        {
          "internalType": "uint256",
          "name": "pricePaid",
          "type": "uint256"
        },
        {
          "internalType": "address",
          "name": "buyer",
          "type": "address"
        }
      ],
      "name": "markAsSold",
      "outputs": [],
      "stateMutability": "nonpayable",
      "type": "function"
    },
    {
      "inputs": [],
      "name": "oliPayAddress",
      "outputs": [
        {
          "internalType": "address",
          "name": "",
          "type": "address"
        }
      ],
      "stateMutability": "view",
      "type": "function"
    },
    {
      "inputs": [],
      "name": "owner",
      "outputs": [
        {
          "internalType": "address",
          "name": "",
          "type": "address"
        }
      ],
      "stateMutability": "view",
      "type": "function"
    },
    {
      "inputs": [
        {
          "internalType": "address",
          "name": "_oliPay",
          "type": "address"
        }
      ],
      "name": "setOliPayAddress",
      "outputs": [],
      "stateMutability": "nonpayable",
      "type": "function"
    },
    {
      "inputs": [],
      "name": "totalLots",
      "outputs": [
        {
          "internalType": "uint256",
          "name": "",
          "type": "uint256"
        }
      ],
      "stateMutability": "view",
      "type": "function"
    }
  ],
  "bytecode": "0x60806040523480156200001157600080fd5b50600080546001600160a01b031916339081178255604080518082018252600581526430b236b4b760d91b6020808301919091529284526002909252909120906200005d908262000109565b50620001d5565b634e487b7160e01b600052604160045260246000fd5b600181811c908216806200008f57607f821691505b602082108103620000b057634e487b7160e01b600052602260045260246000fd5b50919050565b601f8211156200010457600081815260208120601f850160051c81016020861015620000df5750805b601f850160051c820191505b818110156200010057828155600101620000eb565b5050505b505050565b81516001600160401b0381111562000125576200012562000064565b6200013d816200013684546200007a565b84620000b6565b602080601f8311600181146200017557600084156200015c5750858301515b600019600386901b1c1916600185901b17855562000100565b600085815260208120601f198616915b82811015620001a65788860151825594840194600190910190840162000185565b5085821015620001c55787850151600019600388901b60f8161c191681555b5050505050600190811b01905550565b612c0a80620001e56000396000f3fe608060405234801561001057600080fd5b50600436106100ea5760003560e01c80638e20ddaa1161008c578063ae6cecbc11610066578063ae6cecbc14610203578063b7dfcbee14610216578063d042d59f14610229578063fc801cbd1461023c57600080fd5b80638e20ddaa146101b0578063a663addd146101c3578063ab995d12146101e357600080fd5b806344276733116100c8578063442767331461013f5780634ca10d9d1461015f5780635f5fbc2c146101725780638da5cb5b1461019d57600080fd5b8063051f4ad4146100ef5780631265b4e714610118578063360f277b1461012d575b600080fd5b6101026100fd366004611f96565b61024f565b60405161010f9190612036565b60405180910390f35b61012b61012636600461210c565b610470565b005b6001545b60405190815260200161010f565b61015261014d366004612141565b6106fd565b60405161010f9190612163565b61013161016d3660046121bf565b6107a9565b600654610185906001600160a01b031681565b6040516001600160a01b03909116815260200161010f565b600054610185906001600160a01b031681565b61012b6101be366004612263565b610c1a565b6101d66101d1366004612141565b610efb565b60405161010f91906122d0565b6101f66101f1366004611f96565b610f66565b60405161010f9190612314565b61012b61021136600461239c565b61114a565b61012b61022436600461241f565b611427565b61012b610237366004612141565b611544565b61012b61024a366004612472565b611635565b60608160008111801561026457506001548111155b6102895760405162461bcd60e51b8152600401610280906124ec565b60405180910390fd5b600083815260046020908152604080832080548251818502810185019093528083529193909284015b8282101561046357838290600052602060002090600402016040518060a00160405290816000820160009054906101000a900460ff1660048111156102f9576102f9611faf565b600481111561030a5761030a611faf565b8152815461010090046001600160a01b031660208201526001820154604082015260028201805460609092019161034090612523565b80601f016020809104026020016040519081016040528092919081815260200182805461036c90612523565b80156103b95780601f1061038e576101008083540402835291602001916103b9565b820191906000526020600020905b81548152906001019060200180831161039c57829003601f168201915b505050505081526020016003820180546103d290612523565b80601f01602080910402602001604051908101604052809291908181526020018280546103fe90612523565b801561044b5780601f106104205761010080835404028352916020019161044b565b820191906000526020600020905b81548152906001019060200180831161042e57829003601f168201915b505050505081525050815260200190600101906102b2565b5050505091505b50919050565b6006546001600160a01b031633146104d45760405162461bcd60e51b815260206004820152602160248201527f4f6c69766554726163653a20617070656c616e74206e6f6e206175746f7269736044820152606560f81b6064820152608401610280565b826000811180156104e757506001548111155b6105035760405162461bcd60e51b8152600401610280906124ec565b600084815260036020819052604090912090600582015460ff16600481111561052e5761052e611faf565b1461057b5760405162461bcd60e51b815260206004820152601d60248201527f4f6c69766554726163653a206c6f74206e6f6e206469737472696275650000006044820152606401610280565b60006105868561190c565b61058f85611a16565b6040516020016105a0929190612557565b60408051808303601f1901815260008981526004602081815284832060a0870186528287526001600160a01b038b16828801524287870152606087018590528551808301909652838652608087019590955284546001808201875595845292208551928202018054939650939192849260ff1990911691849081111561062857610628611faf565b0217905550602082015181546001600160a01b0390911661010002610100600160a81b031990911617815560408201516001820155606082015160028201906106719082612629565b50608082015160038201906106869082612629565b50505060058201805460ff191660049081179091556040514281526001600160a01b03861691908890600080516020612bb58339815191529060200160405180910390a460405186907f418c7c9b923439a701395aeb152861f42c1ae8b5014a9987f88b3154fe5c004c90600090a2505050505050565b6001600160a01b038116600090815260026020526040902080546060919061072490612523565b80601f016020809104026020016040519081016040528092919081815260200182805461075090612523565b801561079d5780601f106107725761010080835404028352916020019161079d565b820191906000526020600020905b81548152906001019060200180831161078057829003601f168201915b50505050509050919050565b600060405180604001604052806008815260200167383937b23ab1b2b960c11b8152506107d63382611c1a565b806108035750610803336040518060400160405280600581526020016430b236b4b760d91b815250611c1a565b8160405160200161081491906126e9565b604051602081830303815290604052906108415760405162461bcd60e51b81526004016102809190612163565b508761088f5760405162461bcd60e51b815260206004820152601860248201527f4f6c69766554726163653a2076617269657465207669646500000000000000006044820152606401610280565b600087116108df5760405162461bcd60e51b815260206004820152601a60248201527f4f6c69766554726163653a207175616e74697465206e756c6c650000000000006044820152606401610280565b600180549060006108ef83612744565b919050555060015491506040518060e00160405280838152602001336001600160a01b031681526020018a8a8080601f0160208091040260200160405190810160405280939291908181526020018383808284376000920182905250938552505042602084015250604082018a9052606090910190815260200185858080601f01602080910402602001604051908101604052809392919081815260200183838082843760009201829052509390945250508481526003602090815260409182902084518155908401516001820180546001600160a01b0319166001600160a01b039092169190911790559083015190915060028201906109f09082612629565b50606082015181600301556080820151816004015560a08201518160050160006101000a81548160ff02191690836004811115610a2f57610a2f611faf565b021790555060c08201516006820190610a489082612629565b50905050600086868b8b610a5b8c61190c565b604051602001610a6f95949392919061275d565b60408051808303601f1901815260008681526004602090815283822060a08601855291855233818601524285850152606085018390528351601f8a018290048202810182019094528884529194509291608083019189908990819084018382808284376000920182905250939094525050835460018181018655948252602090912083516004928302909101805494959094919350849260ff19909216918490811115610b1e57610b1e611faf565b0217905550602082015181546001600160a01b0390911661010002610100600160a81b03199091161781556040820151600182015560608201516002820190610b679082612629565b5060808201516003820190610b7c9082612629565b5050336000818152600560209081526040808320805460018101825590845291909220018690555190915084907f86a48bf63cc2dac10f52f1042994aceecd2dd8c8388e9312ed04e5c4605eea1b90610bda908e908e908e9061280c565b60405180910390a333600084600080516020612bb583398151915242604051610c0591815260200190565b60405180910390a45050979650505050505050565b604051806040016040528060048152602001631b5a5b1b60e21b815250610c413382611c1a565b80610c6e5750610c6e336040518060400160405280600581526020016430b236b4b760d91b815250611c1a565b81604051602001610c7f91906126e9565b60405160208183030381529060405290610cac5760405162461bcd60e51b81526004016102809190612163565b5087600081118015610cc057506001548111155b610cdc5760405162461bcd60e51b8152600401610280906124ec565b600089815260036020526040812090600582015460ff166004811115610d0457610d04611faf565b14610d635760405162461bcd60e51b815260206004820152602960248201527f4f6c69766554726163653a2073746174757420696e76616c69646520706f757260448201526820707265737361676560b81b6064820152608401610280565b6000610d6e8a61190c565b610d778a611c5c565b8989604051602001610d8c9493929190612830565b60408051601f1981840301815260008e8152600460205282902060a084019092529250908060018152602001336001600160a01b0316815260200142815260200183815260200188888080601f0160208091040260200160405190810160405280939291908181526020018383808284376000920182905250939094525050835460018181018655948252602090912083516004928302909101805494959094919350849260ff19909216918490811115610e4957610e49611faf565b0217905550602082015181546001600160a01b0390911661010002610100600160a81b03199091161781556040820151600182015560608201516002820190610e929082612629565b5060808201516003820190610ea79082612629565b50505060058201805460ff19166001179055610ec3338c611cf3565b3360018c600080516020612bb583398151915242604051610ee691815260200190565b60405180910390a45050505050505050505050565b6001600160a01b03811660009081526005602090815260409182902080548351818402810184019094528084526060939283018282801561079d57602002820191906000526020600020905b815481526020019060010190808311610f475750505050509050919050565b610f6e611f3f565b81600081118015610f8157506001548111155b610f9d5760405162461bcd60e51b8152600401610280906124ec565b600083815260036020908152604091829020825160e0810184528154815260018201546001600160a01b0316928101929092526002810180549293919291840191610fe790612523565b80601f016020809104026020016040519081016040528092919081815260200182805461101390612523565b80156110605780601f1061103557610100808354040283529160200191611060565b820191906000526020600020905b81548152906001019060200180831161104357829003601f168201915b5050509183525050600382015460208201526004808301546040830152600583015460609092019160ff169081111561109b5761109b611faf565b60048111156110ac576110ac611faf565b81526020016006820180546110c090612523565b80601f01602080910402602001604051908101604052809291908181526020018280546110ec90612523565b80156111395780601f1061110e57610100808354040283529160200191611139565b820191906000526020600020905b81548152906001019060200180831161111c57829003601f168201915b505050505081525050915050919050565b604051806040016040528060098152602001681d1c985b9cdc1bdc9d60ba1b8152506111763382611c1a565b806111a357506111a3336040518060400160405280600581526020016430b236b4b760d91b815250611c1a565b816040516020016111b491906126e9565b604051602081830303815290604052906111e15760405162461bcd60e51b81526004016102809190612163565b50866000811180156111f557506001548111155b6112115760405162461bcd60e51b8152600401610280906124ec565b60008881526003602052604090206001600582015460ff16600481111561123a5761123a611faf565b1461129a5760405162461bcd60e51b815260206004820152602a60248201527f4f6c69766554726163653a2073746174757420696e76616c69646520706f7572604482015269081d1c985b9cdc1bdc9d60b21b6064820152608401610280565b600088886112a78961190c565b6040516020016112b9939291906128c4565b60408051601f1981840301815260008d8152600460205282902060a084019092529250908060028152602001336001600160a01b0316815260200142815260200183815260200188888080601f0160208091040260200160405190810160405280939291908181526020018383808284376000920182905250939094525050835460018181018655948252602090912083516004928302909101805494959094919350849260ff1990921691849081111561137657611376611faf565b0217905550602082015181546001600160a01b0390911661010002610100600160a81b031990911617815560408201516001820155606082015160028201906113bf9082612629565b50608082015160038201906113d49082612629565b50505060058201805460ff191660021790556113f0338b611cf3565b3360028b600080516020612bb58339815191524260405161141391815260200190565b60405180910390a450505050505050505050565b6000546001600160a01b0316331461147c5760405162461bcd60e51b81526020600482015260186024820152774f6c69766554726163653a206f776e65722072657175697360401b6044820152606401610280565b6001600160a01b0383166114ce5760405162461bcd60e51b81526020600482015260196024820152784f6c69766554726163653a2061647265737365206e756c6c6560381b6044820152606401610280565b6114d88282611d69565b6001600160a01b03831660009081526002602052604090206114fb82848361292d565b50826001600160a01b03167f3565795c2fb8842c21347d277937778bbcfe788b5b4f790fc5e408786cbe9c9083836040516115379291906129ee565b60405180910390a2505050565b6000546001600160a01b031633146115995760405162461bcd60e51b81526020600482015260186024820152774f6c69766554726163653a206f776e65722072657175697360401b6044820152606401610280565b6001600160a01b0381166115eb5760405162461bcd60e51b81526020600482015260196024820152784f6c69766554726163653a2061647265737365206e756c6c6560381b6044820152606401610280565b600680546001600160a01b0319166001600160a01b0383169081179091556040517f76fec5d131ce5178e78e6c84f77636a7ff197fa0c9604f071670563444f2dbc790600090a250565b6040518060400160405280600b81526020016a3234b9ba3934b13aba37b960a91b8152506116633382611c1a565b806116905750611690336040518060400160405280600581526020016430b236b4b760d91b815250611c1a565b816040516020016116a191906126e9565b604051602081830303815290604052906116ce5760405162461bcd60e51b81526004016102809190612163565b50856000811180156116e257506001548111155b6116fe5760405162461bcd60e51b8152600401610280906124ec565b60008781526003602052604090206002600582015460ff16600481111561172757611727611faf565b1461178a5760405162461bcd60e51b815260206004820152602d60248201527f4f6c69766554726163653a2073746174757420696e76616c69646520706f757260448201526c103234b9ba3934b13aba34b7b760991b6064820152608401610280565b6000878760405160200161179f929190612a02565b60408051601f1981840301815260008c8152600460205282902060a084019092529250908060038152602001336001600160a01b0316815260200142815260200183815260200188888080601f0160208091040260200160405190810160405280939291908181526020018383808284376000920182905250939094525050835460018181018655948252602090912083516004928302909101805494959094919350849260ff1990921691849081111561185c5761185c611faf565b0217905550602082015181546001600160a01b0390911661010002610100600160a81b031990911617815560408201516001820155606082015160028201906118a59082612629565b50608082015160038201906118ba9082612629565b50505060058201805460ff191660031790556118d6338a611cf3565b3360038a600080516020612bb5833981519152426040516118f991815260200190565b60405180910390a4505050505050505050565b6060816000036119335750506040805180820190915260018152600360fc1b602082015290565b8160005b811561195d578061194781612744565b91506119569050600a83612a4a565b9150611937565b60008167ffffffffffffffff811115611978576119786125c5565b6040519080825280601f01601f1916602001820160405280156119a2576020820181803683370190505b5090505b8415611a0e57816119b681612a5e565b92506119c59050600a86612a75565b6119d0906030612a89565b60f81b8183815181106119e5576119e5612a9c565b60200101906001600160f81b031916908160001a905350611a07600a86612a4a565b94506119a6565b949350505050565b604051606082811b6bffffffffffffffffffffffff191660208301529060009060340160408051808303601f190181528282018252601083526f181899199a1a9b1b9c1cb0b131b232b360811b60208401528151602a80825260608201909352909350600091602082018180368337019050509050600360fc1b81600081518110611aa357611aa3612a9c565b60200101906001600160f81b031916908160001a905350600f60fb1b81600181518110611ad257611ad2612a9c565b60200101906001600160f81b031916908160001a90535060005b6014811015611c1157826004858381518110611b0a57611b0a612a9c565b016020015182516001600160f81b031990911690911c60f81c908110611b3257611b32612a9c565b01602001516001600160f81b03191682611b4d836002612ab2565b611b58906002612a89565b81518110611b6857611b68612a9c565b60200101906001600160f81b031916908160001a90535082848281518110611b9257611b92612a9c565b602091010151815160f89190911c600f16908110611bb257611bb2612a9c565b01602001516001600160f81b03191682611bcd836002612ab2565b611bd8906003612a89565b81518110611be857611be8612a9c565b60200101906001600160f81b031916908160001a90535080611c0981612744565b915050611aec565b50949350505050565b80516020808301919091206001600160a01b0384166000908152600290925260408083209051611c4a9190612ac9565b60405180910390201490505b92915050565b60606000611c6b606484612a4a565b90506000611c7a606485612a75565b90506000600a8210611c9457611c8f8261190c565b611cbd565b611c9d8261190c565b604051602001611cad9190612b3f565b6040516020818303038152906040525b9050611cc88361190c565b81604051602001611cda929190612b68565b6040516020818303038152906040529350505050919050565b6001600160a01b0382166000908152600560205260408120905b8154811015611d515782828281548110611d2957611d29612a9c565b906000526020600020015403611d3f5750505050565b80611d4981612744565b915050611d0d565b50805460018101825560009182526020909120015550565b60008282604051611d7b929190612ba4565b604080519182900382208282019091526008825267383937b23ab1b2b960c11b60209092019190915290507fe8a771116431fd497933c982e9f1e2baea13d28ed5c5faf7e60dd163b2619256811480611e0f57506040805180820190915260048152631b5a5b1b60e21b6020909101527f2d60faec8b8d83a624c0f8611cadf5cda78455ec80bef3d03eaf5710a024f9cf81145b80611e5a57506040805180820190915260098152681d1c985b9cdc1bdc9d60ba1b6020909101527f2032d2c418cd62478a7259766abef5fcaa10a5b1fbaa3a09d3727ba5757cf7ab81145b80611ea7575060408051808201909152600b81526a3234b9ba3934b13aba37b960a91b6020909101527f71c5a35e45a25c49e8f747acd4bcb869814b3d104c492d2554f4c46e12371f5781145b80611eee575060408051808201909152600581526430b236b4b760d91b6020909101527ff23ec0bb4210edd5cba85afd05127efcd2fc6a781bfed49188da1081670b22d881145b611f3a5760405162461bcd60e51b815260206004820152601960248201527f4f6c69766554726163653a20726f6c6520696e76616c696465000000000000006044820152606401610280565b505050565b6040518060e001604052806000815260200160006001600160a01b0316815260200160608152602001600081526020016000815260200160006004811115611f8957611f89611faf565b8152602001606081525090565b600060208284031215611fa857600080fd5b5035919050565b634e487b7160e01b600052602160045260246000fd5b60058110611fe357634e487b7160e01b600052602160045260246000fd5b50565b60005b83811015612001578181015183820152602001611fe9565b50506000910152565b60008151808452612022816020860160208601611fe6565b601f01601f19169290920160200192915050565b60006020808301818452808551808352604092508286019150828160051b87010184880160005b838110156120e257603f19898403018552815160a0815161207d81611fc5565b8552818901516001600160a01b03168986015287820151888601526060808301518187018390526120b08388018261200a565b92505050608080830151925085820381870152506120ce818361200a565b96890196945050509086019060010161205d565b509098975050505050505050565b80356001600160a01b038116811461210757600080fd5b919050565b60008060006060848603121561212157600080fd5b8335925060208401359150612138604085016120f0565b90509250925092565b60006020828403121561215357600080fd5b61215c826120f0565b9392505050565b60208152600061215c602083018461200a565b60008083601f84011261218857600080fd5b50813567ffffffffffffffff8111156121a057600080fd5b6020830191508360208285010111156121b857600080fd5b9250929050565b60008060008060008060006080888a0312156121da57600080fd5b873567ffffffffffffffff808211156121f257600080fd5b6121fe8b838c01612176565b909950975060208a0135965060408a013591508082111561221e57600080fd5b61222a8b838c01612176565b909650945060608a013591508082111561224357600080fd5b506122508a828b01612176565b989b979a50959850939692959293505050565b600080600080600080600060a0888a03121561227e57600080fd5b873596506020880135955060408801359450606088013567ffffffffffffffff808211156122ab57600080fd5b6122b78b838c01612176565b909650945060808a013591508082111561224357600080fd5b6020808252825182820181905260009190848201906040850190845b81811015612308578351835292840192918401916001016122ec565b50909695505050505050565b602081528151602082015260018060a01b0360208301511660408201526000604083015160e0606084015261234d61010084018261200a565b905060608401516080840152608084015160a084015260a084015161237181611fc5565b8060c08501525060c0840151601f198483030160e0850152612393828261200a565b95945050505050565b600080600080600080608087890312156123b557600080fd5b86359550602087013567ffffffffffffffff808211156123d457600080fd5b6123e08a838b01612176565b909750955060408901359450606089013591508082111561240057600080fd5b5061240d89828a01612176565b979a9699509497509295939492505050565b60008060006040848603121561243457600080fd5b61243d846120f0565b9250602084013567ffffffffffffffff81111561245957600080fd5b61246586828701612176565b9497909650939450505050565b60008060008060006060868803121561248a57600080fd5b85359450602086013567ffffffffffffffff808211156124a957600080fd5b6124b589838a01612176565b909650945060408801359150808211156124ce57600080fd5b506124db88828901612176565b969995985093965092949392505050565b6020808252601a908201527f4f6c69766554726163653a206c6f7420696e6578697374616e74000000000000604082015260600190565b600181811c9082168061253757607f821691505b60208210810361046a57634e487b7160e01b600052602260045260246000fd5b6c3d91383934b1b2a830b4b2111d60991b8152825160009061258081600d850160208801611fe6565b691611313abcb2b9111d1160b11b600d9184019182015283516125aa816017840160208801611fe6565b61227d60f01b60179290910191820152601901949350505050565b634e487b7160e01b600052604160045260246000fd5b601f821115611f3a57600081815260208120601f850160051c810160208610156126025750805b601f850160051c820191505b818110156126215782815560010161260e565b505050505050565b815167ffffffffffffffff811115612643576126436125c5565b612657816126518454612523565b846125db565b602080601f83116001811461268c57600084156126745750858301515b600019600386901b1c1916600185901b178555612621565b600085815260208120601f198616915b828110156126bb5788860151825594840194600190910190840161269c565b50858210156126d95787850151600019600388901b60f8161c191681555b5050505050600190811b01905550565b7f4f6c69766554726163653a20726f6c6520726571756973203d2000000000000081526000825161272181601a850160208701611fe6565b91909101601a0192915050565b634e487b7160e01b600052601160045260246000fd5b6000600182016127565761275661272e565b5060010190565b6c3d913637b1b0ba34b7b7111d1160991b81528486600d83013760008582016c1116113b30b934b2ba3c911d1160991b600d8201528486601a8301376c11161138bab0b73a34ba3c911d60991b601a9186019182015283516127c6816027840160208801611fe6565b607d60f81b60279290910191820152602801979650505050505050565b81835281816020850137506000828201602090810191909152601f909101601f19169091010190565b6040815260006128206040830185876127e3565b9050826020830152949350505050565b6f3d9137baba383aba2634ba32b939911d60811b8152845160009061285c816010850160208a01611fe6565b6b161130b1b4b234ba3c911d1160a11b601091840191820152855161288881601c840160208a01611fe6565b6a1116113630b132b6111d1160a91b601c92909101918201528385602783013761227d60f01b9301602781019390935250506029019392505050565b6f3d913232b9ba34b730ba34b7b7111d1160811b81528284601083013760008382016f1116113a32b6b832b930ba3ab932911d60811b60108201528351612912816020840160208801611fe6565b607d60f81b6020929091019182015260210195945050505050565b67ffffffffffffffff831115612945576129456125c5565b612959836129538354612523565b836125db565b6000601f84116001811461298d57600085156129755750838201355b600019600387901b1c1916600186901b1783556129e7565b600083815260209020601f19861690835b828110156129be578685013582556020948501946001909201910161299e565b50868210156129db5760001960f88860031b161c19848701351681555b505060018560011b0183555b5050505050565b602081526000611a0e6020830184866127e3565b6c3d913932ba30b4b632b9111d1160991b81528183600d83013761227d60f01b9101600d810191909152600f01919050565b634e487b7160e01b600052601260045260246000fd5b600082612a5957612a59612a34565b500490565b600081612a6d57612a6d61272e565b506000190190565b600082612a8457612a84612a34565b500690565b80820180821115611c5657611c5661272e565b634e487b7160e01b600052603260045260246000fd5b8082028115828204841417611c5657611c5661272e565b6000808354612ad781612523565b60018281168015612aef5760018114612b0457612b33565b60ff1984168752821515830287019450612b33565b8760005260208060002060005b85811015612b2a5781548a820152908401908201612b11565b50505082870194505b50929695505050505050565b600360fc1b815260008251612b5b816001850160208701611fe6565b9190910160010192915050565b60008351612b7a818460208801611fe6565b601760f91b9083019081528351612b98816001840160208801611fe6565b01600101949350505050565b818382376000910190815291905056fef9c6571b98867c489c6ae3acc8e87e42a36f17e0ddf9d98a157d9116eb3a58d8a26469706673582212207b78573a382e972262457dc0dcaa2dab1ef0af37b3b7a34776aa71dbf0b548d764736f6c63430008140033",
  "linkReferences": {},
  "deployedLinkReferences": {}
}